:100000000C9462000C948A000C948A000C948A0070
:100010000C948A000C948A000C948A000C948A0038
:100020000C948A000C948A000C948A000C948A0028
:100030000C948A000C948A000C948A000C948A0018
:100040000C9413020C948A000C9483020C945D02AD
:100050000C948A000C948A000C948A000C948A00F8
:100060000C948A000C948A000000000024002700F1
:100070002A000000000023002600290000000000E4
:10008000250028002B0004040404040404040202D4
:100090000202020203030303030301020408102007
:1000A0004080010204081020010204081020000012
:1000B0000008000201000003040700000000000027
:1000C0000000CE0411241FBECFEFD8E0DEBFCDBFAD
:1000D00011E0A0E0B1E0E6ECFEE002C005900D9278
:1000E000A034B107D9F721E0A0E4B1E001C01D922E
:1000F000AA3EB207E1F710E0C2E6D0E004C02197C3
:10010000FE010E945B07C136D107C9F70E94FA02BF
:100110000C9461070C940000E1EBF0E02491EDE910
:10012000F0E09491E9E8F0E0E491EE23C9F02223B5
:1001300039F0233001F1A8F4213019F1223029F1EE
:10014000F0E0EE0FFF1FE458FF4FA591B4912FB7D9
:10015000F894EC91811126C090959E239C932FBF1B
:1001600008952730A9F02830C9F0243049F72091AC
:1001700080002F7D03C0209180002F772093800086
:10018000DFCF24B52F7724BDDBCF24B52F7DFBCF68
:100190002091B0002F772093B000D2CF2091B000F3
:1001A0002F7DF9CF9E2BDACF3FB7F894809149018C
:1001B00090914A01A0914B01B0914C0126B5A89BAA
:1001C00005C02F3F19F00196A11DB11D3FBFBA2FE9
:1001D000A92F982F8827BC01CD01620F711D811DA9
:1001E000911D42E0660F771F881F991F4A95D1F72E
:1001F0000895AF92BF92CF92DF92EF92FF920F934A
:100200001F93CF93DF936C017B018B01040F151FAC
:10021000EB015E01AE18BF08C017D10759F0699114
:10022000D601ED91FC910190F081E02DC601099578
:10023000892B79F7C501DF91CF911F910F91FF9025
:10024000EF90DF90CF90BF90AF900895FC01538D59
:10025000448D252F30E0842F90E0821B930B5417A0
:1002600010F0CF96089501970895FC01918D828D2D
:10027000981761F0A28DAE0FBF2FB11D5D968C91C6
:10028000928D9F5F9F73928F90E008958FEF9FEF05
:100290000895FC01918D828D981731F0828DE80FC1
:1002A000F11D858D90E008958FEF9FEF0895FC017B
:1002B000918D228D892F90E0805C9F4F821B910948
:1002C0008F73992708958DE491E00E94570121E0F2
:1002D000892B09F420E0822F089580E090E0892B9B
:1002E00029F00E94630181110C9400000895FC0123
:1002F000A48DA80FB92FB11DA35ABF4F2C91848D87
:1003000090E001968F739927848FA689B7892C93E3
:10031000A089B1898C91837080648C93938D848D36
:10032000981306C00288F389E02D80818F7D808339
:100330000895EF92FF920F931F93CF93DF93EC01F9
:1003400081E0888F9B8D8C8D98131AC0E889F9897C
:10035000808185FF15C09FB7F894EE89FF8960837F
:10036000E889F98980818370806480839FBF81E000
:1003700090E0DF91CF911F910F91FF90EF90089542
:10038000F62E0B8D10E00F5F1F4F0F731127E02E1D
:100390008C8D8E110CC00FB607FCFACFE889F98955
:1003A000808185FFF5CFCE010E947701F1CFEB8DE3
:1003B000EC0FFD2FF11DE35AFF4FF0829FB7F89429
:1003C0000B8FEA89FB8980818062CFCFCF93DF9347
:1003D000EC01888D8823B9F0AA89BB89E889F9895D
:1003E0008C9185FD03C0808186FD0DC00FB607FC92
:1003F000F7CF8C9185FFF2CF808185FFEDCFCE01C5
:100400000E947701E9CFDF91CF910895FC0101901F
:100410000020E9F73197AF01481B590BBC018DE46F
:1004200091E00C94F9001F920F920FB60F921124D5
:100430002F933F938F939F93AF93BF9380914501E9
:1004400090914601A0914701B0914801309144013B
:1004500023E0230F2D3758F50196A11DB11D2093E0
:1004600044018093450190934601A0934701B093C6
:1004700048018091490190914A01A0914B01B091AE
:100480004C010196A11DB11D8093490190934A0131
:10049000A0934B01B0934C01BF91AF919F918F916D
:1004A0003F912F910F900FBE0F901F90189526E847
:1004B000230F0296A11DB11DD2CF1F920F920FB62E
:1004C0000F9211242F933F934F935F936F937F93DA
:1004D0008F939F93AF93BF93EF93FF938DE491E03E
:1004E0000E947701FF91EF91BF91AF919F918F9102
:1004F0007F916F915F914F913F912F910F900FBE20
:100500000F901F9018951F920F920FB60F92112403
:100510002F938F939F93EF93FF93E0915D01F09161
:100520005E018081E0916301F091640182FD1BC056
:100530009081809166018F5F8F7320916701821790
:1005400041F0E0916601F0E0E35BFE4F958F809310
:100550006601FF91EF919F918F912F910F900FBEA8
:100560000F901F9018958081F4CFCF92DF92EF9279
:10057000FF920F931F93E82FF92F05C00150110927
:100580002109310961F1908196239417B9F305C0CF
:10059000015011092109310911F190819623941319
:1005A000F7CFC12CD12CE12CF12C0AC08FEFC81A47
:1005B000D80AE80AF80A0C151D052E053F0579F042
:1005C00080818623841791F36C2D7D2D8E2D9F2D98
:1005D0001F910F91FF90EF90DF90CF90089560E012
:1005E00070E080E090E01F910F91FF90EF90DF901E
:1005F000CF900895CF93DF93CDB7DEB7A1970FB615
:10060000F894DEBF0FBECDBF789484B5826084BD00
:1006100084B5816084BD85B5826085BD85B5816006
:1006200085BD80916E00816080936E001092810084
:10063000809181008260809381008091810081603F
:100640008093810080918000816080938000809100
:10065000B10084608093B1008091B000816080938C
:10066000B00080917A00846080937A0080917A0053
:10067000826080937A0080917A00816080937A0012
:1006800080917A00806880937A001092C100E09196
:100690005D01F0915E0182E08083E0915901F0916B
:1006A0005A011082E0915B01F0915C0180E180834E
:1006B00010926501E0916101F091620186E0808312
:1006C000E0915F01F0916001808180618083E09121
:1006D0005F01F0916001808188608083E0915F011B
:1006E000F0916001808180688083E0915F01F091EA
:1006F000600180818F7D8083ECE9F0E02491E8E85F
:10070000F0E084918823C9F090E0880F991FFC01E4
:10071000E859FF4FA591B491FC01E458FF4F459172
:1007200054913FB7F8949C91822F809598239C9385
:10073000FA019081892380833FBFEDE9F0E02491A5
:10074000E9E8F0E08491882399F090E0880F991F00
:10075000FC01E859FF4FA591B491FC01E458FF4F0B
:10076000859194918FB7F894EC91E22BEC938FBF25
:1007700023E0222E312C3AE0432E512C612C712C97
:1007800080E00E948C00C1010197F1F781E00E9496
:100790008C0083E290E00197F1F780E00E948C00EA
:1007A000ECE9F0E06491E8E8F0E08491E82FF0E013
:1007B000EE0FFF1FEE58FF4F8591949108EA11E666
:1007C00020E030E0462F0E94B502611571058105D9
:1007D000910509F4E0C06F5F7F4F8F4F9F4F9F706F
:1007E000611571058105910509F4D5C00E941506B2
:1007F00020E030E048E652E40E946D056B017C0188
:1008000020E030E040E050E40E94680587FDC3C06E
:1008100020E030E048EC53E4C701B6010E94C7066F
:1008200018160CF4B8C0C701B6010E94DF056B01B1
:10083000672B09F4B0C06091420170914301072E0B
:10084000000C880B990B0E94170620E030E040E076
:100850005FE30E94CC064B015C01B601DD0C880B06
:10086000990B0E94170620E030E040E05FE30E9411
:10087000CC069B01AC01C501B4010E94FC040E949E
:10088000DF057093430160934201709341016093CF
:10089000400182E191E00E940602C0904001D090A8
:1008A00041010D2C000CEE08FF08F7FE5EC06DE262
:1008B0008DE491E00E94990122273327A9012C1988
:1008C0003D094E095F0919A2CE0181967C01CA013A
:1008D000B901A30192010E943907605DF70162939B
:1008E0007F01211531054105510589F7E114F10416
:1008F00019F0C7010E94060287E291E00E940602F9
:100900008BE291E00E9406020E94D4004B015C0140
:100910008AEFC82ED12CE12CF12C0E94D40068194A
:1009200079098A099B09683E734081059105A8F3FE
:10093000F1E0CF1AD108E108F10828EE820E23E099
:10094000921EA11CB11CC114D104E104F10429F7C9
:1009500080E090E0892B09F413CF0E946301882383
:1009600009F40ECF0E9400000BCFA701960119A237
:10097000CE0181967C01CA01B901A30192010E94B6
:100980003907605DF70162937F012115310541054B
:10099000510589F7ABCF8EE291E0B0CFEDE4F1E005
:1009A0001382128288EE93E0A0E0B0E08483958306
:1009B000A683B78384E091E09183808385EC90E007
:1009C0009587848784EC90E09787868780EC90E019
:1009D000918B808B81EC90E0938B828B82EC90E00A
:1009E000958B848B86EC90E0978B868B118E128E84
:1009F000138E148E08955058BB27AA270E94130502
:100A00000C948D060E947F0638F00E94860620F026
:100A100039F49F3F19F426F40C947C060EF4E0950B
:100A2000E7FB0C947606E92F0E949E0658F3BA174E
:100A3000620773078407950720F079F4A6F50C94F4
:100A4000C0060EF4E0950B2EBA2FA02D0B01B901B4
:100A500090010C01CA01A0011124FF27591B99F034
:100A6000593F50F4503E68F11A16F040A22F232F40
:100A7000342F4427585FF3CF469537952795A79590
:100A8000F0405395C9F77EF41F16BA0B620B730B37
:100A9000840BBAF09150A1F0FF0FBB1F661F771FA8
:100AA000881FC2F70EC0BA0F621F731F841F48F45D
:100AB000879577956795B795F7959E3F08F0B0CFE6
:100AC0009395880F08F09927EE0F979587950895CD
:100AD0000E94520608F481E008950E9481050C945A
:100AE0008D060E94860658F00E947F0640F029F489
:100AF0005F3F29F00C94760651110C94C1060C94BA
:100B00007C060E949E0668F39923B1F3552391F366
:100B1000951B550BBB27AA2762177307840738F06C
:100B20009F5F5F4F220F331F441FAA1FA9F335D0C9
:100B30000E2E3AF0E0E832D091505040E695001C7D
:100B4000CAF72BD0FE2F29D0660F771F881FBB1F37
:100B5000261737074807AB07B0E809F0BB0B802D15
:100B6000BF01FF2793585F4F3AF09E3F510578F041
:100B70000C9476060C94C1065F3FE4F3983ED4F3E0
:100B8000869577956795B795F7959F5FC9F7880F15
:100B9000911D9695879597F90895E1E0660F771F67
:100BA000881FBB1F621773078407BA0720F0621BF8
:100BB000730B840BBA0BEE1F88F7E09508950E9423
:100BC000E6056894B1110C94C10608950E94A6062A
:100BD00088F09F5798F0B92F9927B751B0F0E1F0FE
:100BE000660F771F881F991F1AF0BA95C9F714C0AE
:100BF000B13091F00E94C006B1E008950C94C00697
:100C0000672F782F8827B85F39F0B93FCCF38695E6
:100C100077956795B395D9F73EF490958095709543
:100C200061957F4F8F4F9F4F0895E89409C097FBC0
:100C30003EF490958095709561957F4F8F4F9F4FB3
:100C40009923A9F0F92F96E9BB279395F6958795F7
:100C500077956795B795F111F8CFFAF4BB0F11F4BA
:100C600060FF1BC06F5F7F4F8F4F9F4F16C0882361
:100C700011F096E911C0772321F09EE8872F762F97
:100C800005C0662371F096E8862F70E060E02AF0D8
:100C90009A95660F771F881FDAF7880F96958795C4
:100CA00097F90895990F0008550FAA0BE0E8FEEF99
:100CB00016161706E807F907C0F012161306E40720
:100CC000F50798F0621B730B840B950B39F40A2619
:100CD00061F0232B242B252B21F408950A2609F4F7
:100CE000A140A6958FEF811D811D089597F99F67FB
:100CF00080E870E060E008959FEF80EC08950024A4
:100D00000A941616170618060906089500240A9470
:100D100012161306140605060895092E0394000CF6
:100D200011F4882352F0BB0F40F4BF2B11F460FF85
:100D300004C06F5F7F4F8F4F9F4F089557FD9058AE
:100D4000440F551F59F05F3F71F04795880F97FB8F
:100D5000991F61F09F3F79F0879508951216130649
:100D60001406551FF2CF4695F1DF08C01616170678
:100D70001806991FF1CF86957105610508940895AD
:100D8000E894BB2766277727CB0197F908950E943F
:100D9000520608F48FEF08950E94DF060C948D062A
:100DA0000E947F0638F00E94860620F0952311F0FD
:100DB0000C9476060C947C0611240C94C1060E94B7
:100DC0009E0670F3959FC1F3950F50E0551F629FEB
:100DD000F001729FBB27F00DB11D639FAA27F00D94
:100DE000B11DAA1F649F6627B00DA11D661F829FBB
:100DF0002227B00DA11D621F739FB00DA11D621FA0
:100E0000839FA00D611D221F749F3327A00D611DBC
:100E1000231F849F600D211D822F762F6A2F11249E
:100E20009F5750409AF0F1F088234AF0EE0FFF1FD1
:100E3000BB1F661F771F881F91505040A9F79E3F28
:100E4000510580F00C9476060C94C1065F3FE4F3E4
:100E5000983ED4F3869577956795B795F795E7957E
:100E60009F5FC1F7FE2B880F911D9695879597F987
:100E70000895A1E21A2EAA1BBB1BFD010DC0AA1FDB
:100E8000BB1FEE1FFF1FA217B307E407F50720F0F3
:100E9000A21BB30BE40BF50B661F771F881F991F6E
:100EA0001A9469F760957095809590959B01AC01B7
:100EB000BD01CF010895EE0FFF1F0590F491E02DC5
:060EC0000994F894FFCF35
:100EC600000000009901F9002601E60157013501ED
:100ED600490144697374616E63652066696C747256
:100EE600C3A965203D200020636D000D0A00486FF0
:100EF600727320646520706F7274C3A96520210027
:00000001FF
